{
  "contractName": "Candidate",
  "abi": [
    {
      "inputs": [
        {
          "internalType": "address",
          "name": "_electionCommissionAddress",
          "type": "address"
        }
      ],
      "stateMutability": "nonpayable",
      "type": "constructor"
    },
    {
      "inputs": [
        {
          "internalType": "uint256",
          "name": "",
          "type": "uint256"
        }
      ],
      "name": "candidateData",
      "outputs": [
        {
          "internalType": "string",
          "name": "fname",
          "type": "string"
        },
        {
          "internalType": "string",
          "name": "lname",
          "type": "string"
        },
        {
          "internalType": "string",
          "name": "party_name",
          "type": "string"
        },
        {
          "internalType": "string",
          "name": "party_symbol",
          "type": "string"
        },
        {
          "internalType": "address",
          "name": "ethereum_address",
          "type": "address"
        }
      ],
      "stateMutability": "view",
      "type": "function"
    },
    {
      "inputs": [
        {
          "internalType": "string",
          "name": "_fname",
          "type": "string"
        },
        {
          "internalType": "string",
          "name": "_lname",
          "type": "string"
        },
        {
          "internalType": "string",
          "name": "_party_name",
          "type": "string"
        },
        {
          "internalType": "string",
          "name": "_party_symbol",
          "type": "string"
        },
        {
          "internalType": "address",
          "name": "candidate_address",
          "type": "address"
        }
      ],
      "name": "insertCandidateData",
      "outputs": [],
      "stateMutability": "nonpayable",
      "type": "function"
    },
    {
      "inputs": [
        {
          "internalType": "string",
          "name": "_party_name",
          "type": "string"
        }
      ],
      "name": "getCandidateDataByPartyName",
      "outputs": [
        {
          "components": [
            {
              "internalType": "string",
              "name": "fname",
              "type": "string"
            },
            {
              "internalType": "string",
              "name": "lname",
              "type": "string"
            },
            {
              "internalType": "string",
              "name": "party_name",
              "type": "string"
            },
            {
              "internalType": "string",
              "name": "party_symbol",
              "type": "string"
            },
            {
              "internalType": "address",
              "name": "ethereum_address",
              "type": "address"
            }
          ],
          "internalType": "struct Candidate.candidate_template_data",
          "name": "_candidate",
          "type": "tuple"
        }
      ],
      "stateMutability": "view",
      "type": "function"
    },
    {
      "inputs": [
        {
          "internalType": "string",
          "name": "_party_name",
          "type": "string"
        }
      ],
      "name": "getCandidateAddressByPartyName",
      "outputs": [
        {
          "internalType": "address",
          "name": "_candidate_address",
          "type": "address"
        }
      ],
      "stateMutability": "view",
      "type": "function"
    },
    {
      "inputs": [],
      "name": "getPartiesList",
      "outputs": [
        {
          "internalType": "string[]",
          "name": "parties",
          "type": "string[]"
        }
      ],
      "stateMutability": "view",
      "type": "function"
    }
  ],
  "bytecode": "0x60806040523480156200001157600080fd5b506040516200172c3803806200172c833981810160405281019062000037919062000096565b80600160006101000a81548173ffffffffffffffffffffffffffffffffffffffff021916908373ffffffffffffffffffffffffffffffffffffffff1602179055505062000110565b6000815190506200009081620000f6565b92915050565b600060208284031215620000a957600080fd5b6000620000b9848285016200007f565b91505092915050565b6000620000cf82620000d6565b9050919050565b600073ffffffffffffffffffffffffffffffffffffffff82169050919050565b6200010181620000c2565b81146200010d57600080fd5b50565b61160c80620001206000396000f3fe608060405234801561001057600080fd5b50600436106100565760003560e01c80621d51f91461005b578063318c95d91461008b57806337a811a1146100a75780638b209dcd146100c55780638ec9bc6a146100f9575b600080fd5b61007560048036038101906100709190610e8c565b610129565b6040516100829190611349565b60405180910390f35b6100a560048036038101906100a09190610ed1565b6104d3565b005b6100af6107cc565b6040516100bc9190611298565b60405180910390f35b6100df60048036038101906100da9190610fb9565b610988565b6040516100f09594939291906112ba565b60405180910390f35b610113600480360381019061010e9190610e8c565b610c0e565b604051610120919061127d565b60405180910390f35b610131610d30565b60005b6000805490508110156104cb57838360405161015192919061124d565b604051809103902060008281548110610193577f4e487b7100000000000000000000000000000000000000000000000000000000600052603260045260246000fd5b90600052602060002090600502016002016040516101b19190611266565b604051809103902014156104b857600081815481106101f9577f4e487b7100000000000000000000000000000000000000000000000000000000600052603260045260246000fd5b90600052602060002090600502016040518060a00160405290816000820180546102229061146f565b80601f016020809104026020016040519081016040528092919081815260200182805461024e9061146f565b801561029b5780601f106102705761010080835404028352916020019161029b565b820191906000526020600020905b81548152906001019060200180831161027e57829003601f168201915b505050505081526020016001820180546102b49061146f565b80601f01602080910402602001604051908101604052809291908181526020018280546102e09061146f565b801561032d5780601f106103025761010080835404028352916020019161032d565b820191906000526020600020905b81548152906001019060200180831161031057829003601f168201915b505050505081526020016002820180546103469061146f565b80601f01602080910402602001604051908101604052809291908181526020018280546103729061146f565b80156103bf5780601f10610394576101008083540402835291602001916103bf565b820191906000526020600020905b8154815290600101906020018083116103a257829003601f168201915b505050505081526020016003820180546103d89061146f565b80601f01602080910402602001604051908101604052809291908181526020018280546104049061146f565b80156104515780601f1061042657610100808354040283529160200191610451565b820191906000526020600020905b81548152906001019060200180831161043457829003601f168201915b505050505081526020016004820160009054906101000a900473ffffffffffffffffffffffffffffffffffffffff1673ffffffffffffffffffffffffffffffffffffffff1673ffffffffffffffffffffffffffffffffffffffff16815250509150506104cd565b80806104c3906114a1565b915050610134565b505b92915050565b600160009054906101000a900473ffffffffffffffffffffffffffffffffffffffff1673ffffffffffffffffffffffffffffffffffffffff163373ffffffffffffffffffffffffffffffffffffffff1614610563576040517f08c379a000000000000000000000000000000000000000000000000000000000815260040161055a90611329565b60405180910390fd5b61056b610d30565b89898080601f016020809104026020016040519081016040528093929190818152602001838380828437600081840152601f19601f82011690508083019250505050505050816000018190525087878080601f016020809104026020016040519081016040528093929190818152602001838380828437600081840152601f19601f82011690508083019250505050505050816020018190525083838080601f016020809104026020016040519081016040528093929190818152602001838380828437600081840152601f19601f82011690508083019250505050505050816060018190525085858080601f016020809104026020016040519081016040528093929190818152602001838380828437600081840152601f19601f82011690508083019250505050505050816040018190525081816080019073ffffffffffffffffffffffffffffffffffffffff16908173ffffffffffffffffffffffffffffffffffffffff16815250506000819080600181540180825580915050600190039060005260206000209060050201600090919091909150600082015181600001908051906020019061071f929190610d75565b50602082015181600101908051906020019061073c929190610d75565b506040820151816002019080519060200190610759929190610d75565b506060820151816003019080519060200190610776929190610d75565b5060808201518160040160006101000a81548173ffffffffffffffffffffffffffffffffffffffff021916908373ffffffffffffffffffffffffffffffffffffffff160217905550505050505050505050505050565b606060008054905067ffffffffffffffff811115610813577f4e487b7100000000000000000000000000000000000000000000000000000000600052604160045260246000fd5b60405190808252806020026020018201604052801561084657816020015b60608152602001906001900390816108315790505b50905060005b6000805490508110156109845760008181548110610893577f4e487b7100000000000000000000000000000000000000000000000000000000600052603260045260246000fd5b906000526020600020906005020160020180546108af9061146f565b80601f01602080910402602001604051908101604052809291908181526020018280546108db9061146f565b80156109285780601f106108fd57610100808354040283529160200191610928565b820191906000526020600020905b81548152906001019060200180831161090b57829003601f168201915b5050505050828281518110610966577f4e487b7100000000000000000000000000000000000000000000000000000000600052603260045260246000fd5b6020026020010181905250808061097c906114a1565b91505061084c565b5090565b6000818154811061099857600080fd5b90600052602060002090600502016000915090508060000180546109bb9061146f565b80601f01602080910402602001604051908101604052809291908181526020018280546109e79061146f565b8015610a345780601f10610a0957610100808354040283529160200191610a34565b820191906000526020600020905b815481529060010190602001808311610a1757829003601f168201915b505050505090806001018054610a499061146f565b80601f0160208091040260200160405190810160405280929190818152602001828054610a759061146f565b8015610ac25780601f10610a9757610100808354040283529160200191610ac2565b820191906000526020600020905b815481529060010190602001808311610aa557829003601f168201915b505050505090806002018054610ad79061146f565b80601f0160208091040260200160405190810160405280929190818152602001828054610b039061146f565b8015610b505780601f10610b2557610100808354040283529160200191610b50565b820191906000526020600020905b815481529060010190602001808311610b3357829003601f168201915b505050505090806003018054610b659061146f565b80601f0160208091040260200160405190810160405280929190818152602001828054610b919061146f565b8015610bde5780601f10610bb357610100808354040283529160200191610bde565b820191906000526020600020905b815481529060010190602001808311610bc157829003601f168201915b5050505050908060040160009054906101000a900473ffffffffffffffffffffffffffffffffffffffff16905085565b600080600090505b600080549050811015610d28578383604051610c3392919061124d565b604051809103902060008281548110610c75577f4e487b7100000000000000000000000000000000000000000000000000000000600052603260045260246000fd5b9060005260206000209060050201600201604051610c939190611266565b60405180910390201415610d155760008181548110610cdb577f4e487b7100000000000000000000000000000000000000000000000000000000600052603260045260246000fd5b906000526020600020906005020160040160009054906101000a900473ffffffffffffffffffffffffffffffffffffffff16915050610d2a565b8080610d20906114a1565b915050610c16565b505b92915050565b6040518060a0016040528060608152602001606081526020016060815260200160608152602001600073ffffffffffffffffffffffffffffffffffffffff1681525090565b828054610d819061146f565b90600052602060002090601f016020900481019282610da35760008555610dea565b82601f10610dbc57805160ff1916838001178555610dea565b82800160010185558215610dea579182015b82811115610de9578251825591602001919060010190610dce565b5b509050610df79190610dfb565b5090565b5b80821115610e14576000816000905550600101610dfc565b5090565b600081359050610e27816115a8565b92915050565b60008083601f840112610e3f57600080fd5b8235905067ffffffffffffffff811115610e5857600080fd5b602083019150836001820283011115610e7057600080fd5b9250929050565b600081359050610e86816115bf565b92915050565b60008060208385031215610e9f57600080fd5b600083013567ffffffffffffffff811115610eb957600080fd5b610ec585828601610e2d565b92509250509250929050565b600080600080600080600080600060a08a8c031215610eef57600080fd5b60008a013567ffffffffffffffff811115610f0957600080fd5b610f158c828d01610e2d565b995099505060208a013567ffffffffffffffff811115610f3457600080fd5b610f408c828d01610e2d565b975097505060408a013567ffffffffffffffff811115610f5f57600080fd5b610f6b8c828d01610e2d565b955095505060608a013567ffffffffffffffff811115610f8a57600080fd5b610f968c828d01610e2d565b93509350506080610fa98c828d01610e18565b9150509295985092959850929598565b600060208284031215610fcb57600080fd5b6000610fd984828501610e77565b91505092915050565b6000610fee838361112d565b905092915050565b610fff816113f1565b82525050565b61100e816113f1565b82525050565b600061101f82611390565b61102981856113b3565b93508360208202850161103b8561136b565b8060005b8581101561107757848403895281516110588582610fe2565b9450611063836113a6565b925060208a0199505060018101905061103f565b50829750879550505050505092915050565b600061109583856113c4565b93506110a283858461142d565b82840190509392505050565b600081546110bb8161146f565b6110c581866113c4565b945060018216600081146110e057600181146110f157611124565b60ff19831686528186019350611124565b6110fa8561137b565b60005b8381101561111c578154818901526001820191506020810190506110fd565b838801955050505b50505092915050565b60006111388261139b565b61114281856113cf565b935061115281856020860161143c565b61115b81611548565b840191505092915050565b60006111718261139b565b61117b81856113e0565b935061118b81856020860161143c565b61119481611548565b840191505092915050565b60006111ac6038836113e0565b91506111b782611559565b604082019050919050565b600060a08301600083015184820360008601526111df828261112d565b915050602083015184820360208601526111f9828261112d565b91505060408301518482036040860152611213828261112d565b9150506060830151848203606086015261122d828261112d565b91505060808301516112426080860182610ff6565b508091505092915050565b600061125a828486611089565b91508190509392505050565b600061127282846110ae565b915081905092915050565b60006020820190506112926000830184611005565b92915050565b600060208201905081810360008301526112b28184611014565b905092915050565b600060a08201905081810360008301526112d48188611166565b905081810360208301526112e88187611166565b905081810360408301526112fc8186611166565b905081810360608301526113108185611166565b905061131f6080830184611005565b9695505050505050565b600060208201905081810360008301526113428161119f565b9050919050565b6000602082019050818103600083015261136381846111c2565b905092915050565b6000819050602082019050919050565b60008190508160005260206000209050919050565b600081519050919050565b600081519050919050565b6000602082019050919050565b600082825260208201905092915050565b600081905092915050565b600082825260208201905092915050565b600082825260208201905092915050565b60006113fc82611403565b9050919050565b600073ffffffffffffffffffffffffffffffffffffffff82169050919050565b6000819050919050565b82818337600083830152505050565b60005b8381101561145a57808201518184015260208101905061143f565b83811115611469576000848401525b50505050565b6000600282049050600182168061148757607f821691505b6020821081141561149b5761149a611519565b5b50919050565b60006114ac82611423565b91507fffffffffffffffffffffffffffffffffffffffffffffffffffffffffffffffff8214156114df576114de6114ea565b5b600182019050919050565b7f4e487b7100000000000000000000000000000000000000000000000000000000600052601160045260246000fd5b7f4e487b7100000000000000000000000000000000000000000000000000000000600052602260045260246000fd5b6000601f19601f8301169050919050565b7f496e636f6d696e672063616c6c206973206e6f742066726f6d20456c6563746960008201527f6f6e20436f6d6d697373696f6e277320636f6e74726163740000000000000000602082015250565b6115b1816113f1565b81146115bc57600080fd5b50565b6115c881611423565b81146115d357600080fd5b5056fea26469706673582212203bff0b281418baa611219449fe735352027068d376683122c9ebc4417ac8b09f64736f6c63430008020033",
  "immutableReferences": {},
  "source": "// SPDX-License-Identifier: MIT\npragma solidity >=0.4.22 <0.9.0;\npragma abicoder v2;\n\ncontract Candidate {\n    struct candidate_template_data {\n        string fname;\n        string lname;\n        string party_name;\n        string party_symbol;\n        address ethereum_address;\n    }\n\n    candidate_template_data[] public candidateData;\n\n    address electionCommissionAddress;\n\n    constructor(address _electionCommissionAddress) {\n        electionCommissionAddress = _electionCommissionAddress;\n    }\n\n    function insertCandidateData(\n        string calldata _fname,\n        string calldata _lname,\n        string calldata _party_name,\n        string calldata _party_symbol,\n        address candidate_address\n    ) external {\n        require(\n            msg.sender == electionCommissionAddress,\n            \"Incoming call is not from Election Commission's contract\"\n        );\n\n        candidate_template_data memory obj;\n\n        obj.fname = _fname;\n        obj.lname = _lname;\n        obj.party_symbol = _party_symbol;\n        obj.party_name = _party_name;\n        obj.ethereum_address = candidate_address;\n\n        candidateData.push(obj);\n    }\n\n    function getCandidateDataByPartyName(string calldata _party_name)\n        public\n        view\n        returns (candidate_template_data memory _candidate)\n    {\n        for (uint256 loop = 0; loop < candidateData.length; loop++) {\n            if (\n                keccak256(bytes(candidateData[loop].party_name)) ==\n                keccak256(bytes(_party_name))\n            ) {\n                return candidateData[loop];\n            }\n        }\n    }\n\n    function getCandidateAddressByPartyName(string calldata _party_name)\n        public\n        view\n        returns (address _candidate_address)\n    {\n        for (uint256 loop = 0; loop < candidateData.length; loop++) {\n            if (\n                keccak256(bytes(candidateData[loop].party_name)) ==\n                keccak256(bytes(_party_name))\n            ) {\n                return candidateData[loop].ethereum_address;\n            }\n        }\n    }\n\n    function getPartiesList() external view returns (string[] memory parties) {\n        parties = new string[](candidateData.length);\n\n        for (uint256 loop = 0; loop < candidateData.length; loop++) {\n            parties[loop] = candidateData[loop].party_name;\n        }\n    }\n}\n",
  "sourcePath": "/mnt/g/javascript/Projects/BlockChain/Voting_Dapp/contracts/Candidate.sol",
  "compiler": {
    "name": "solc",
    "version": "0.8.2+commit.661d1103.Emscripten.clang"
  },
  "schemaVersion": "3.4.2",
  "updatedAt": "2021-08-14T02:07:44.043Z",
  "devdoc": {
    "kind": "dev",
    "methods": {},
    "version": 1
  },
  "userdoc": {
    "kind": "user",
    "methods": {},
    "version": 1
  }
}