{
  "contractName": "ElectionCommission",
  "abi": [
    {
      "inputs": [],
      "stateMutability": "nonpayable",
      "type": "constructor"
    },
    {
      "inputs": [],
      "name": "getCandidateContractAddress",
      "outputs": [
        {
          "internalType": "address",
          "name": "candidateContractAddress",
          "type": "address"
        }
      ],
      "stateMutability": "view",
      "type": "function",
      "constant": true
    },
    {
      "inputs": [],
      "name": "getVoterContractAddress",
      "outputs": [
        {
          "internalType": "address",
          "name": "voterContractAddress",
          "type": "address"
        }
      ],
      "stateMutability": "view",
      "type": "function",
      "constant": true
    },
    {
      "inputs": [
        {
          "internalType": "string",
          "name": "_fname",
          "type": "string"
        },
        {
          "internalType": "string",
          "name": "_lname",
          "type": "string"
        },
        {
          "internalType": "string",
          "name": "_party_name",
          "type": "string"
        },
        {
          "internalType": "string",
          "name": "_party_symbol",
          "type": "string"
        },
        {
          "internalType": "address",
          "name": "candidate_address",
          "type": "address"
        }
      ],
      "name": "insertNewCandidate",
      "outputs": [],
      "stateMutability": "nonpayable",
      "type": "function"
    }
  ],
  "bytecode": "0x608060405234801561001057600080fd5b50336000806101000a81548173ffffffffffffffffffffffffffffffffffffffff021916908373ffffffffffffffffffffffffffffffffffffffff1602179055503060405161005e90610160565b6100689190610189565b604051809103906000f080158015610084573d6000803e3d6000fd5b50600160006101000a81548173ffffffffffffffffffffffffffffffffffffffff021916908373ffffffffffffffffffffffffffffffffffffffff160217905550600160009054906101000a900473ffffffffffffffffffffffffffffffffffffffff166040516100f49061016d565b6100fe9190610189565b604051809103906000f08015801561011a573d6000803e3d6000fd5b50600260006101000a81548173ffffffffffffffffffffffffffffffffffffffff021916908373ffffffffffffffffffffffffffffffffffffffff1602179055506101d6565b61172c8061076483390190565b61109380611e9083390190565b610183816101a4565b82525050565b600060208201905061019e600083018461017a565b92915050565b60006101af826101b6565b9050919050565b600073ffffffffffffffffffffffffffffffffffffffff82169050919050565b61057f806101e56000396000f3fe608060405234801561001057600080fd5b50600436106100415760003560e01c806306a28b5114610046578063680f318c14610062578063c5ce8bcf14610080575b600080fd5b610060600480360381019061005b9190610287565b61009e565b005b61006a6101d4565b60405161007791906103ce565b60405180910390f35b6100886101fe565b60405161009591906103ce565b60405180910390f35b60008054906101000a900473ffffffffffffffffffffffffffffffffffffffff1673ffffffffffffffffffffffffffffffffffffffff163373ffffffffffffffffffffffffffffffffffffffff161461012c576040517f08c379a000000000000000000000000000000000000000000000000000000000815260040161012390610460565b60405180910390fd5b600160009054906101000a900473ffffffffffffffffffffffffffffffffffffffff1673ffffffffffffffffffffffffffffffffffffffff1663318c95d98a8a8a8a8a8a8a8a8a6040518a63ffffffff1660e01b8152600401610197999897969594939291906103e9565b600060405180830381600087803b1580156101b157600080fd5b505af11580156101c5573d6000803e3d6000fd5b50505050505050505050505050565b6000600160009054906101000a900473ffffffffffffffffffffffffffffffffffffffff16905090565b6000600260009054906101000a900473ffffffffffffffffffffffffffffffffffffffff16905090565b60008135905061023781610532565b92915050565b60008083601f84011261024f57600080fd5b8235905067ffffffffffffffff81111561026857600080fd5b60208301915083600182028301111561028057600080fd5b9250929050565b600080600080600080600080600060a08a8c0312156102a557600080fd5b60008a013567ffffffffffffffff8111156102bf57600080fd5b6102cb8c828d0161023d565b995099505060208a013567ffffffffffffffff8111156102ea57600080fd5b6102f68c828d0161023d565b975097505060408a013567ffffffffffffffff81111561031557600080fd5b6103218c828d0161023d565b955095505060608a013567ffffffffffffffff81111561034057600080fd5b61034c8c828d0161023d565b9350935050608061035f8c828d01610228565b9150509295985092959850929598565b61037881610491565b82525050565b600061038a8385610480565b93506103978385846104c3565b6103a0836104d2565b840190509392505050565b60006103b8602e83610480565b91506103c3826104e3565b604082019050919050565b60006020820190506103e3600083018461036f565b92915050565b600060a0820190508181036000830152610404818b8d61037e565b9050818103602083015261041981898b61037e565b9050818103604083015261042e81878961037e565b9050818103606083015261044381858761037e565b9050610452608083018461036f565b9a9950505050505050505050565b60006020820190508181036000830152610479816103ab565b9050919050565b600082825260208201905092915050565b600061049c826104a3565b9050919050565b600073ffffffffffffffffffffffffffffffffffffffff82169050919050565b82818337600083830152505050565b6000601f19601f8301169050919050565b7f20596f7520617265206e6f7420616e2061646d696e6973747261746f72206f6660008201527f207468697320636f6e7472616374000000000000000000000000000000000000602082015250565b61053b81610491565b811461054657600080fd5b5056fea2646970667358221220aa2817f5737212e1dbf6bc4bf118cb23f128a06266b1973737bd1805fa535ddd64736f6c6343000802003360806040523480156200001157600080fd5b506040516200172c3803806200172c833981810160405281019062000037919062000096565b80600160006101000a81548173ffffffffffffffffffffffffffffffffffffffff021916908373ffffffffffffffffffffffffffffffffffffffff1602179055505062000110565b6000815190506200009081620000f6565b92915050565b600060208284031215620000a957600080fd5b6000620000b9848285016200007f565b91505092915050565b6000620000cf82620000d6565b9050919050565b600073ffffffffffffffffffffffffffffffffffffffff82169050919050565b6200010181620000c2565b81146200010d57600080fd5b50565b61160c80620001206000396000f3fe608060405234801561001057600080fd5b50600436106100565760003560e01c80621d51f91461005b578063318c95d91461008b57806337a811a1146100a75780638b209dcd146100c55780638ec9bc6a146100f9575b600080fd5b61007560048036038101906100709190610e8c565b610129565b6040516100829190611349565b60405180910390f35b6100a560048036038101906100a09190610ed1565b6104d3565b005b6100af6107cc565b6040516100bc9190611298565b60405180910390f35b6100df60048036038101906100da9190610fb9565b610988565b6040516100f09594939291906112ba565b60405180910390f35b610113600480360381019061010e9190610e8c565b610c0e565b604051610120919061127d565b60405180910390f35b610131610d30565b60005b6000805490508110156104cb57838360405161015192919061124d565b604051809103902060008281548110610193577f4e487b7100000000000000000000000000000000000000000000000000000000600052603260045260246000fd5b90600052602060002090600502016002016040516101b19190611266565b604051809103902014156104b857600081815481106101f9577f4e487b7100000000000000000000000000000000000000000000000000000000600052603260045260246000fd5b90600052602060002090600502016040518060a00160405290816000820180546102229061146f565b80601f016020809104026020016040519081016040528092919081815260200182805461024e9061146f565b801561029b5780601f106102705761010080835404028352916020019161029b565b820191906000526020600020905b81548152906001019060200180831161027e57829003601f168201915b505050505081526020016001820180546102b49061146f565b80601f01602080910402602001604051908101604052809291908181526020018280546102e09061146f565b801561032d5780601f106103025761010080835404028352916020019161032d565b820191906000526020600020905b81548152906001019060200180831161031057829003601f168201915b505050505081526020016002820180546103469061146f565b80601f01602080910402602001604051908101604052809291908181526020018280546103729061146f565b80156103bf5780601f10610394576101008083540402835291602001916103bf565b820191906000526020600020905b8154815290600101906020018083116103a257829003601f168201915b505050505081526020016003820180546103d89061146f565b80601f01602080910402602001604051908101604052809291908181526020018280546104049061146f565b80156104515780601f1061042657610100808354040283529160200191610451565b820191906000526020600020905b81548152906001019060200180831161043457829003601f168201915b505050505081526020016004820160009054906101000a900473ffffffffffffffffffffffffffffffffffffffff1673ffffffffffffffffffffffffffffffffffffffff1673ffffffffffffffffffffffffffffffffffffffff16815250509150506104cd565b80806104c3906114a1565b915050610134565b505b92915050565b600160009054906101000a900473ffffffffffffffffffffffffffffffffffffffff1673ffffffffffffffffffffffffffffffffffffffff163373ffffffffffffffffffffffffffffffffffffffff1614610563576040517f08c379a000000000000000000000000000000000000000000000000000000000815260040161055a90611329565b60405180910390fd5b61056b610d30565b89898080601f016020809104026020016040519081016040528093929190818152602001838380828437600081840152601f19601f82011690508083019250505050505050816000018190525087878080601f016020809104026020016040519081016040528093929190818152602001838380828437600081840152601f19601f82011690508083019250505050505050816020018190525083838080601f016020809104026020016040519081016040528093929190818152602001838380828437600081840152601f19601f82011690508083019250505050505050816060018190525085858080601f016020809104026020016040519081016040528093929190818152602001838380828437600081840152601f19601f82011690508083019250505050505050816040018190525081816080019073ffffffffffffffffffffffffffffffffffffffff16908173ffffffffffffffffffffffffffffffffffffffff16815250506000819080600181540180825580915050600190039060005260206000209060050201600090919091909150600082015181600001908051906020019061071f929190610d75565b50602082015181600101908051906020019061073c929190610d75565b506040820151816002019080519060200190610759929190610d75565b506060820151816003019080519060200190610776929190610d75565b5060808201518160040160006101000a81548173ffffffffffffffffffffffffffffffffffffffff021916908373ffffffffffffffffffffffffffffffffffffffff160217905550505050505050505050505050565b606060008054905067ffffffffffffffff811115610813577f4e487b7100000000000000000000000000000000000000000000000000000000600052604160045260246000fd5b60405190808252806020026020018201604052801561084657816020015b60608152602001906001900390816108315790505b50905060005b6000805490508110156109845760008181548110610893577f4e487b7100000000000000000000000000000000000000000000000000000000600052603260045260246000fd5b906000526020600020906005020160020180546108af9061146f565b80601f01602080910402602001604051908101604052809291908181526020018280546108db9061146f565b80156109285780601f106108fd57610100808354040283529160200191610928565b820191906000526020600020905b81548152906001019060200180831161090b57829003601f168201915b5050505050828281518110610966577f4e487b7100000000000000000000000000000000000000000000000000000000600052603260045260246000fd5b6020026020010181905250808061097c906114a1565b91505061084c565b5090565b6000818154811061099857600080fd5b90600052602060002090600502016000915090508060000180546109bb9061146f565b80601f01602080910402602001604051908101604052809291908181526020018280546109e79061146f565b8015610a345780601f10610a0957610100808354040283529160200191610a34565b820191906000526020600020905b815481529060010190602001808311610a1757829003601f168201915b505050505090806001018054610a499061146f565b80601f0160208091040260200160405190810160405280929190818152602001828054610a759061146f565b8015610ac25780601f10610a9757610100808354040283529160200191610ac2565b820191906000526020600020905b815481529060010190602001808311610aa557829003601f168201915b505050505090806002018054610ad79061146f565b80601f0160208091040260200160405190810160405280929190818152602001828054610b039061146f565b8015610b505780601f10610b2557610100808354040283529160200191610b50565b820191906000526020600020905b815481529060010190602001808311610b3357829003601f168201915b505050505090806003018054610b659061146f565b80601f0160208091040260200160405190810160405280929190818152602001828054610b919061146f565b8015610bde5780601f10610bb357610100808354040283529160200191610bde565b820191906000526020600020905b815481529060010190602001808311610bc157829003601f168201915b5050505050908060040160009054906101000a900473ffffffffffffffffffffffffffffffffffffffff16905085565b600080600090505b600080549050811015610d28578383604051610c3392919061124d565b604051809103902060008281548110610c75577f4e487b7100000000000000000000000000000000000000000000000000000000600052603260045260246000fd5b9060005260206000209060050201600201604051610c939190611266565b60405180910390201415610d155760008181548110610cdb577f4e487b7100000000000000000000000000000000000000000000000000000000600052603260045260246000fd5b906000526020600020906005020160040160009054906101000a900473ffffffffffffffffffffffffffffffffffffffff16915050610d2a565b8080610d20906114a1565b915050610c16565b505b92915050565b6040518060a0016040528060608152602001606081526020016060815260200160608152602001600073ffffffffffffffffffffffffffffffffffffffff1681525090565b828054610d819061146f565b90600052602060002090601f016020900481019282610da35760008555610dea565b82601f10610dbc57805160ff1916838001178555610dea565b82800160010185558215610dea579182015b82811115610de9578251825591602001919060010190610dce565b5b509050610df79190610dfb565b5090565b5b80821115610e14576000816000905550600101610dfc565b5090565b600081359050610e27816115a8565b92915050565b60008083601f840112610e3f57600080fd5b8235905067ffffffffffffffff811115610e5857600080fd5b602083019150836001820283011115610e7057600080fd5b9250929050565b600081359050610e86816115bf565b92915050565b60008060208385031215610e9f57600080fd5b600083013567ffffffffffffffff811115610eb957600080fd5b610ec585828601610e2d565b92509250509250929050565b600080600080600080600080600060a08a8c031215610eef57600080fd5b60008a013567ffffffffffffffff811115610f0957600080fd5b610f158c828d01610e2d565b995099505060208a013567ffffffffffffffff811115610f3457600080fd5b610f408c828d01610e2d565b975097505060408a013567ffffffffffffffff811115610f5f57600080fd5b610f6b8c828d01610e2d565b955095505060608a013567ffffffffffffffff811115610f8a57600080fd5b610f968c828d01610e2d565b93509350506080610fa98c828d01610e18565b9150509295985092959850929598565b600060208284031215610fcb57600080fd5b6000610fd984828501610e77565b91505092915050565b6000610fee838361112d565b905092915050565b610fff816113f1565b82525050565b61100e816113f1565b82525050565b600061101f82611390565b61102981856113b3565b93508360208202850161103b8561136b565b8060005b8581101561107757848403895281516110588582610fe2565b9450611063836113a6565b925060208a0199505060018101905061103f565b50829750879550505050505092915050565b600061109583856113c4565b93506110a283858461142d565b82840190509392505050565b600081546110bb8161146f565b6110c581866113c4565b945060018216600081146110e057600181146110f157611124565b60ff19831686528186019350611124565b6110fa8561137b565b60005b8381101561111c578154818901526001820191506020810190506110fd565b838801955050505b50505092915050565b60006111388261139b565b61114281856113cf565b935061115281856020860161143c565b61115b81611548565b840191505092915050565b60006111718261139b565b61117b81856113e0565b935061118b81856020860161143c565b61119481611548565b840191505092915050565b60006111ac6038836113e0565b91506111b782611559565b604082019050919050565b600060a08301600083015184820360008601526111df828261112d565b915050602083015184820360208601526111f9828261112d565b91505060408301518482036040860152611213828261112d565b9150506060830151848203606086015261122d828261112d565b91505060808301516112426080860182610ff6565b508091505092915050565b600061125a828486611089565b91508190509392505050565b600061127282846110ae565b915081905092915050565b60006020820190506112926000830184611005565b92915050565b600060208201905081810360008301526112b28184611014565b905092915050565b600060a08201905081810360008301526112d48188611166565b905081810360208301526112e88187611166565b905081810360408301526112fc8186611166565b905081810360608301526113108185611166565b905061131f6080830184611005565b9695505050505050565b600060208201905081810360008301526113428161119f565b9050919050565b6000602082019050818103600083015261136381846111c2565b905092915050565b6000819050602082019050919050565b60008190508160005260206000209050919050565b600081519050919050565b600081519050919050565b6000602082019050919050565b600082825260208201905092915050565b600081905092915050565b600082825260208201905092915050565b600082825260208201905092915050565b60006113fc82611403565b9050919050565b600073ffffffffffffffffffffffffffffffffffffffff82169050919050565b6000819050919050565b82818337600083830152505050565b60005b8381101561145a57808201518184015260208101905061143f565b83811115611469576000848401525b50505050565b6000600282049050600182168061148757607f821691505b6020821081141561149b5761149a611519565b5b50919050565b60006114ac82611423565b91507fffffffffffffffffffffffffffffffffffffffffffffffffffffffffffffffff8214156114df576114de6114ea565b5b600182019050919050565b7f4e487b7100000000000000000000000000000000000000000000000000000000600052601160045260246000fd5b7f4e487b7100000000000000000000000000000000000000000000000000000000600052602260045260246000fd5b6000601f19601f8301169050919050565b7f496e636f6d696e672063616c6c206973206e6f742066726f6d20456c6563746960008201527f6f6e20436f6d6d697373696f6e277320636f6e74726163740000000000000000602082015250565b6115b1816113f1565b81146115bc57600080fd5b50565b6115c881611423565b81146115d357600080fd5b5056fea26469706673582212203bff0b281418baa611219449fe735352027068d376683122c9ebc4417ac8b09f64736f6c63430008020033608060405234801561001057600080fd5b506040516110933803806110938339818101604052810190610032919061008e565b80600160006101000a81548173ffffffffffffffffffffffffffffffffffffffff021916908373ffffffffffffffffffffffffffffffffffffffff16021790555050610100565b600081519050610088816100e9565b92915050565b6000602082840312156100a057600080fd5b60006100ae84828501610079565b91505092915050565b60006100c2826100c9565b9050919050565b600073ffffffffffffffffffffffffffffffffffffffff82169050919050565b6100f2816100b7565b81146100fd57600080fd5b50565b610f848061010f6000396000f3fe608060405234801561001057600080fd5b50600436106100415760003560e01c80630642d7e1146100465780634dd6c17e14610062578063567fdd9b14610092575b600080fd5b610060600480360381019061005b91906109fb565b6100c3565b005b61007c600480360381019061007791906109b6565b6102ff565b6040516100899190610c1b565b60405180910390f35b6100ac60048036038101906100a791906109b6565b61046c565b6040516100ba929190610b8b565b60405180910390f35b6000600160009054906101000a900473ffffffffffffffffffffffffffffffffffffffff1673ffffffffffffffffffffffffffffffffffffffff16638ec9bc6a836040518263ffffffff1660e01b81526004016101209190610b69565b60206040518083038186803b15801561013857600080fd5b505afa15801561014c573d6000803e3d6000fd5b505050506040513d601f19601f82011682018060405250810190610170919061098d565b9050600073ffffffffffffffffffffffffffffffffffffffff168173ffffffffffffffffffffffffffffffffffffffff1614156101e2576040517f08c379a00000000000000000000000000000000000000000000000000000000081526004016101d990610bdb565b60405180910390fd5b6101ea6107f3565b83816000018190525033816020019073ffffffffffffffffffffffffffffffffffffffff16908173ffffffffffffffffffffffffffffffffffffffff16815250506000808373ffffffffffffffffffffffffffffffffffffffff1673ffffffffffffffffffffffffffffffffffffffff16815260200190815260200160002081908060018154018082558091505060019003906000526020600020906002020160009091909190915060008201518160000190805190602001906102af929190610823565b5060208201518160010160006101000a81548173ffffffffffffffffffffffffffffffffffffffff021916908373ffffffffffffffffffffffffffffffffffffffff160217905550505050505050565b600080600160009054906101000a900473ffffffffffffffffffffffffffffffffffffffff1673ffffffffffffffffffffffffffffffffffffffff16638ec9bc6a85856040518363ffffffff1660e01b815260040161035f929190610b45565b60206040518083038186803b15801561037757600080fd5b505afa15801561038b573d6000803e3d6000fd5b505050506040513d601f19601f820116820180604052508101906103af919061098d565b9050600073ffffffffffffffffffffffffffffffffffffffff168173ffffffffffffffffffffffffffffffffffffffff161415610421576040517f08c379a000000000000000000000000000000000000000000000000000000000815260040161041890610bfb565b60405180910390fd5b6000808273ffffffffffffffffffffffffffffffffffffffff1673ffffffffffffffffffffffffffffffffffffffff1681526020019081526020016000208054905091505092915050565b6060600080600160009054906101000a900473ffffffffffffffffffffffffffffffffffffffff1673ffffffffffffffffffffffffffffffffffffffff16638ec9bc6a86866040518363ffffffff1660e01b81526004016104ce929190610b45565b60206040518083038186803b1580156104e657600080fd5b505afa1580156104fa573d6000803e3d6000fd5b505050506040513d601f19601f8201168201806040525081019061051e919061098d565b9050600073ffffffffffffffffffffffffffffffffffffffff168173ffffffffffffffffffffffffffffffffffffffff161415610590576040517f08c379a000000000000000000000000000000000000000000000000000000000815260040161058790610bbb565b60405180910390fd5b60005b6000808373ffffffffffffffffffffffffffffffffffffffff1673ffffffffffffffffffffffffffffffffffffffff168152602001908152602001600020805490508110156107e9573373ffffffffffffffffffffffffffffffffffffffff166000808473ffffffffffffffffffffffffffffffffffffffff1673ffffffffffffffffffffffffffffffffffffffff1681526020019081526020016000208281548110610669577f4e487b7100000000000000000000000000000000000000000000000000000000600052603260045260246000fd5b906000526020600020906002020160010160009054906101000a900473ffffffffffffffffffffffffffffffffffffffff1673ffffffffffffffffffffffffffffffffffffffff1614156107d6576000808373ffffffffffffffffffffffffffffffffffffffff1673ffffffffffffffffffffffffffffffffffffffff168152602001908152602001600020818154811061072d577f4e487b7100000000000000000000000000000000000000000000000000000000600052603260045260246000fd5b90600052602060002090600202016000018181805461074b90610d26565b80601f016020809104026020016040519081016040528092919081815260200182805461077790610d26565b80156107c45780601f10610799576101008083540402835291602001916107c4565b820191906000526020600020905b8154815290600101906020018083116107a757829003601f168201915b505050505091509350935050506107ec565b80806107e190610d89565b915050610593565b50505b9250929050565b604051806040016040528060608152602001600073ffffffffffffffffffffffffffffffffffffffff1681525090565b82805461082f90610d26565b90600052602060002090601f0160209004810192826108515760008555610898565b82601f1061086a57805160ff1916838001178555610898565b82800160010185558215610898579182015b8281111561089757825182559160200191906001019061087c565b5b5090506108a591906108a9565b5090565b5b808211156108c25760008160009055506001016108aa565b5090565b60006108d96108d484610c5b565b610c36565b9050828152602081018484840111156108f157600080fd5b6108fc848285610ce4565b509392505050565b60008151905061091381610f37565b92915050565b60008083601f84011261092b57600080fd5b8235905067ffffffffffffffff81111561094457600080fd5b60208301915083600182028301111561095c57600080fd5b9250929050565b600082601f83011261097457600080fd5b81356109848482602086016108c6565b91505092915050565b60006020828403121561099f57600080fd5b60006109ad84828501610904565b91505092915050565b600080602083850312156109c957600080fd5b600083013567ffffffffffffffff8111156109e357600080fd5b6109ef85828601610919565b92509250509250929050565b60008060408385031215610a0e57600080fd5b600083013567ffffffffffffffff811115610a2857600080fd5b610a3485828601610963565b925050602083013567ffffffffffffffff811115610a5157600080fd5b610a5d85828601610963565b9150509250929050565b6000610a738385610c97565b9350610a80838584610ce4565b610a8983610e5f565b840190509392505050565b6000610a9f82610c8c565b610aa98185610c97565b9350610ab9818560208601610cf3565b610ac281610e5f565b840191505092915050565b6000610ada601d83610c97565b9150610ae582610e70565b602082019050919050565b6000610afd603583610c97565b9150610b0882610e99565b604082019050919050565b6000610b20602283610c97565b9150610b2b82610ee8565b604082019050919050565b610b3f81610cda565b82525050565b60006020820190508181036000830152610b60818486610a67565b90509392505050565b60006020820190508181036000830152610b838184610a94565b905092915050565b60006040820190508181036000830152610ba58185610a94565b9050610bb46020830184610b36565b9392505050565b60006020820190508181036000830152610bd481610acd565b9050919050565b60006020820190508181036000830152610bf481610af0565b9050919050565b60006020820190508181036000830152610c1481610b13565b9050919050565b6000602082019050610c306000830184610b36565b92915050565b6000610c40610c51565b9050610c4c8282610d58565b919050565b6000604051905090565b600067ffffffffffffffff821115610c7657610c75610e30565b5b610c7f82610e5f565b9050602081019050919050565b600081519050919050565b600082825260208201905092915050565b6000610cb382610cba565b9050919050565b600073ffffffffffffffffffffffffffffffffffffffff82169050919050565b6000819050919050565b82818337600083830152505050565b60005b83811015610d11578082015181840152602081019050610cf6565b83811115610d20576000848401525b50505050565b60006002820490506001821680610d3e57607f821691505b60208210811415610d5257610d51610e01565b5b50919050565b610d6182610e5f565b810181811067ffffffffffffffff82111715610d8057610d7f610e30565b5b80604052505050565b6000610d9482610cda565b91507fffffffffffffffffffffffffffffffffffffffffffffffffffffffffffffffff821415610dc757610dc6610dd2565b5b600182019050919050565b7f4e487b7100000000000000000000000000000000000000000000000000000000600052601160045260246000fd5b7f4e487b7100000000000000000000000000000000000000000000000000000000600052602260045260246000fd5b7f4e487b7100000000000000000000000000000000000000000000000000000000600052604160045260246000fd5b6000601f19601f8301169050919050565b7f205468657265206973206e6f2073756368207061727479206578697374000000600082015250565b7f205468657265206973206e6f2063616e64696461746520666f7220746869732060008201527f706172747920696e2074686520636f6e74726163740000000000000000000000602082015250565b7f204e6f2063616e64696461746520666f756e6420666f7220746869732070617260008201527f7479000000000000000000000000000000000000000000000000000000000000602082015250565b610f4081610ca8565b8114610f4b57600080fd5b5056fea2646970667358221220dcf8f804a8ba7ceb3650387cf00cffc94d2368a0eb46c02c0b71e9da826971a664736f6c63430008020033",
  "immutableReferences": {},
  "source": "// SPDX-License-Identifier: MIT\npragma solidity >=0.6.0 <0.9.0;\n\nimport \"./Candidate.sol\";\n\nimport \"./Voter.sol\";\n\ncontract ElectionCommission {\n    address ec_admin;\n\n    Candidate candidateContract;\n    Voter voterContract;\n\n    constructor() {\n        ec_admin = msg.sender;\n\n        candidateContract = new Candidate(address(this));\n        voterContract = new Voter(address(candidateContract));\n    }\n\n    modifier is_ECAdmin() {\n        require(\n            msg.sender == ec_admin,\n            \" You are not an administrator of this contract\"\n        );\n        _;\n    }\n\n    function getCandidateContractAddress()\n        public\n        view\n        returns (address candidateContractAddress)\n    {\n        return address(candidateContract);\n    }\n\n    function getVoterContractAddress()\n        public\n        view\n        returns (address voterContractAddress)\n    {\n        return address(voterContract);\n    }\n\n    function insertNewCandidate(\n        string calldata _fname,\n        string calldata _lname,\n        string calldata _party_name,\n        string calldata _party_symbol,\n        address candidate_address\n    ) external is_ECAdmin {\n        candidateContract.insertCandidateData(\n            _fname,\n            _lname,\n            _party_name,\n            _party_symbol,\n            candidate_address\n        );\n    }\n}\n",
  "sourcePath": "/mnt/g/javascript/Projects/BlockChain/Voting_Dapp/contracts/ElectionCommission.sol",
  "compiler": {
    "name": "solc",
    "version": "0.8.2+commit.661d1103.Emscripten.clang"
  },
  "schemaVersion": "3.4.2",
  "updatedAt": "2021-08-14T02:08:24.008Z",
  "networkType": "ethereum",
  "devdoc": {
    "kind": "dev",
    "methods": {},
    "version": 1
  },
  "userdoc": {
    "kind": "user",
    "methods": {},
    "version": 1
  }
}