{
  "contractName": "Voter",
  "abi": [
    {
      "inputs": [
        {
          "internalType": "address",
          "name": "_candidateAddress",
          "type": "address"
        }
      ],
      "stateMutability": "nonpayable",
      "type": "constructor"
    },
    {
      "inputs": [
        {
          "internalType": "string",
          "name": "national_id",
          "type": "string"
        },
        {
          "internalType": "string",
          "name": "_party_name",
          "type": "string"
        }
      ],
      "name": "insertVoteByParty",
      "outputs": [],
      "stateMutability": "nonpayable",
      "type": "function"
    },
    {
      "inputs": [
        {
          "internalType": "string",
          "name": "_party_name",
          "type": "string"
        }
      ],
      "name": "getVotesByParty",
      "outputs": [
        {
          "internalType": "uint256",
          "name": "total_votes",
          "type": "uint256"
        }
      ],
      "stateMutability": "view",
      "type": "function"
    },
    {
      "inputs": [
        {
          "internalType": "string",
          "name": "_party_name",
          "type": "string"
        }
      ],
      "name": "verifyMyVote",
      "outputs": [
        {
          "internalType": "string",
          "name": "nicop",
          "type": "string"
        },
        {
          "internalType": "uint256",
          "name": "voter_index",
          "type": "uint256"
        }
      ],
      "stateMutability": "view",
      "type": "function"
    }
  ],
  "bytecode": "0x608060405234801561001057600080fd5b506040516110933803806110938339818101604052810190610032919061008e565b80600160006101000a81548173ffffffffffffffffffffffffffffffffffffffff021916908373ffffffffffffffffffffffffffffffffffffffff16021790555050610100565b600081519050610088816100e9565b92915050565b6000602082840312156100a057600080fd5b60006100ae84828501610079565b91505092915050565b60006100c2826100c9565b9050919050565b600073ffffffffffffffffffffffffffffffffffffffff82169050919050565b6100f2816100b7565b81146100fd57600080fd5b50565b610f848061010f6000396000f3fe608060405234801561001057600080fd5b50600436106100415760003560e01c80630642d7e1146100465780634dd6c17e14610062578063567fdd9b14610092575b600080fd5b610060600480360381019061005b91906109fb565b6100c3565b005b61007c600480360381019061007791906109b6565b6102ff565b6040516100899190610c1b565b60405180910390f35b6100ac60048036038101906100a791906109b6565b61046c565b6040516100ba929190610b8b565b60405180910390f35b6000600160009054906101000a900473ffffffffffffffffffffffffffffffffffffffff1673ffffffffffffffffffffffffffffffffffffffff16638ec9bc6a836040518263ffffffff1660e01b81526004016101209190610b69565b60206040518083038186803b15801561013857600080fd5b505afa15801561014c573d6000803e3d6000fd5b505050506040513d601f19601f82011682018060405250810190610170919061098d565b9050600073ffffffffffffffffffffffffffffffffffffffff168173ffffffffffffffffffffffffffffffffffffffff1614156101e2576040517f08c379a00000000000000000000000000000000000000000000000000000000081526004016101d990610bdb565b60405180910390fd5b6101ea6107f3565b83816000018190525033816020019073ffffffffffffffffffffffffffffffffffffffff16908173ffffffffffffffffffffffffffffffffffffffff16815250506000808373ffffffffffffffffffffffffffffffffffffffff1673ffffffffffffffffffffffffffffffffffffffff16815260200190815260200160002081908060018154018082558091505060019003906000526020600020906002020160009091909190915060008201518160000190805190602001906102af929190610823565b5060208201518160010160006101000a81548173ffffffffffffffffffffffffffffffffffffffff021916908373ffffffffffffffffffffffffffffffffffffffff160217905550505050505050565b600080600160009054906101000a900473ffffffffffffffffffffffffffffffffffffffff1673ffffffffffffffffffffffffffffffffffffffff16638ec9bc6a85856040518363ffffffff1660e01b815260040161035f929190610b45565b60206040518083038186803b15801561037757600080fd5b505afa15801561038b573d6000803e3d6000fd5b505050506040513d601f19601f820116820180604052508101906103af919061098d565b9050600073ffffffffffffffffffffffffffffffffffffffff168173ffffffffffffffffffffffffffffffffffffffff161415610421576040517f08c379a000000000000000000000000000000000000000000000000000000000815260040161041890610bfb565b60405180910390fd5b6000808273ffffffffffffffffffffffffffffffffffffffff1673ffffffffffffffffffffffffffffffffffffffff1681526020019081526020016000208054905091505092915050565b6060600080600160009054906101000a900473ffffffffffffffffffffffffffffffffffffffff1673ffffffffffffffffffffffffffffffffffffffff16638ec9bc6a86866040518363ffffffff1660e01b81526004016104ce929190610b45565b60206040518083038186803b1580156104e657600080fd5b505afa1580156104fa573d6000803e3d6000fd5b505050506040513d601f19601f8201168201806040525081019061051e919061098d565b9050600073ffffffffffffffffffffffffffffffffffffffff168173ffffffffffffffffffffffffffffffffffffffff161415610590576040517f08c379a000000000000000000000000000000000000000000000000000000000815260040161058790610bbb565b60405180910390fd5b60005b6000808373ffffffffffffffffffffffffffffffffffffffff1673ffffffffffffffffffffffffffffffffffffffff168152602001908152602001600020805490508110156107e9573373ffffffffffffffffffffffffffffffffffffffff166000808473ffffffffffffffffffffffffffffffffffffffff1673ffffffffffffffffffffffffffffffffffffffff1681526020019081526020016000208281548110610669577f4e487b7100000000000000000000000000000000000000000000000000000000600052603260045260246000fd5b906000526020600020906002020160010160009054906101000a900473ffffffffffffffffffffffffffffffffffffffff1673ffffffffffffffffffffffffffffffffffffffff1614156107d6576000808373ffffffffffffffffffffffffffffffffffffffff1673ffffffffffffffffffffffffffffffffffffffff168152602001908152602001600020818154811061072d577f4e487b7100000000000000000000000000000000000000000000000000000000600052603260045260246000fd5b90600052602060002090600202016000018181805461074b90610d26565b80601f016020809104026020016040519081016040528092919081815260200182805461077790610d26565b80156107c45780601f10610799576101008083540402835291602001916107c4565b820191906000526020600020905b8154815290600101906020018083116107a757829003601f168201915b505050505091509350935050506107ec565b80806107e190610d89565b915050610593565b50505b9250929050565b604051806040016040528060608152602001600073ffffffffffffffffffffffffffffffffffffffff1681525090565b82805461082f90610d26565b90600052602060002090601f0160209004810192826108515760008555610898565b82601f1061086a57805160ff1916838001178555610898565b82800160010185558215610898579182015b8281111561089757825182559160200191906001019061087c565b5b5090506108a591906108a9565b5090565b5b808211156108c25760008160009055506001016108aa565b5090565b60006108d96108d484610c5b565b610c36565b9050828152602081018484840111156108f157600080fd5b6108fc848285610ce4565b509392505050565b60008151905061091381610f37565b92915050565b60008083601f84011261092b57600080fd5b8235905067ffffffffffffffff81111561094457600080fd5b60208301915083600182028301111561095c57600080fd5b9250929050565b600082601f83011261097457600080fd5b81356109848482602086016108c6565b91505092915050565b60006020828403121561099f57600080fd5b60006109ad84828501610904565b91505092915050565b600080602083850312156109c957600080fd5b600083013567ffffffffffffffff8111156109e357600080fd5b6109ef85828601610919565b92509250509250929050565b60008060408385031215610a0e57600080fd5b600083013567ffffffffffffffff811115610a2857600080fd5b610a3485828601610963565b925050602083013567ffffffffffffffff811115610a5157600080fd5b610a5d85828601610963565b9150509250929050565b6000610a738385610c97565b9350610a80838584610ce4565b610a8983610e5f565b840190509392505050565b6000610a9f82610c8c565b610aa98185610c97565b9350610ab9818560208601610cf3565b610ac281610e5f565b840191505092915050565b6000610ada601d83610c97565b9150610ae582610e70565b602082019050919050565b6000610afd603583610c97565b9150610b0882610e99565b604082019050919050565b6000610b20602283610c97565b9150610b2b82610ee8565b604082019050919050565b610b3f81610cda565b82525050565b60006020820190508181036000830152610b60818486610a67565b90509392505050565b60006020820190508181036000830152610b838184610a94565b905092915050565b60006040820190508181036000830152610ba58185610a94565b9050610bb46020830184610b36565b9392505050565b60006020820190508181036000830152610bd481610acd565b9050919050565b60006020820190508181036000830152610bf481610af0565b9050919050565b60006020820190508181036000830152610c1481610b13565b9050919050565b6000602082019050610c306000830184610b36565b92915050565b6000610c40610c51565b9050610c4c8282610d58565b919050565b6000604051905090565b600067ffffffffffffffff821115610c7657610c75610e30565b5b610c7f82610e5f565b9050602081019050919050565b600081519050919050565b600082825260208201905092915050565b6000610cb382610cba565b9050919050565b600073ffffffffffffffffffffffffffffffffffffffff82169050919050565b6000819050919050565b82818337600083830152505050565b60005b83811015610d11578082015181840152602081019050610cf6565b83811115610d20576000848401525b50505050565b60006002820490506001821680610d3e57607f821691505b60208210811415610d5257610d51610e01565b5b50919050565b610d6182610e5f565b810181811067ffffffffffffffff82111715610d8057610d7f610e30565b5b80604052505050565b6000610d9482610cda565b91507fffffffffffffffffffffffffffffffffffffffffffffffffffffffffffffffff821415610dc757610dc6610dd2565b5b600182019050919050565b7f4e487b7100000000000000000000000000000000000000000000000000000000600052601160045260246000fd5b7f4e487b7100000000000000000000000000000000000000000000000000000000600052602260045260246000fd5b7f4e487b7100000000000000000000000000000000000000000000000000000000600052604160045260246000fd5b6000601f19601f8301169050919050565b7f205468657265206973206e6f2073756368207061727479206578697374000000600082015250565b7f205468657265206973206e6f2063616e64696461746520666f7220746869732060008201527f706172747920696e2074686520636f6e74726163740000000000000000000000602082015250565b7f204e6f2063616e64696461746520666f756e6420666f7220746869732070617260008201527f7479000000000000000000000000000000000000000000000000000000000000602082015250565b610f4081610ca8565b8114610f4b57600080fd5b5056fea2646970667358221220dcf8f804a8ba7ceb3650387cf00cffc94d2368a0eb46c02c0b71e9da826971a664736f6c63430008020033",
  "immutableReferences": {},
  "source": "// SPDX-License-Identifier: MIT\npragma solidity >=0.6.0 <0.9.0;\n\nimport \"./Candidate.sol\";\n\ncontract Voter {\n    struct VoterData {\n        string nicop;\n        address ethereum_address;\n    }\n\n    mapping(address => VoterData[]) voters;\n\n    Candidate candidateContract;\n\n    constructor(address _candidateAddress) {\n        candidateContract = Candidate(_candidateAddress);\n    }\n\n    function insertVoteByParty(\n        string memory national_id,\n        string memory _party_name\n    ) public {\n        address ethereum_candidate_address = candidateContract\n            .getCandidateAddressByPartyName(_party_name);\n\n        require(\n            ethereum_candidate_address != address(0),\n            \" There is no candidate for this party in the contract\"\n        );\n\n        VoterData memory vdata;\n        vdata.nicop = national_id;\n        vdata.ethereum_address = msg.sender;\n\n        voters[ethereum_candidate_address].push(vdata);\n    }\n\n    function getVotesByParty(string calldata _party_name)\n        public\n        view\n        returns (uint256 total_votes)\n    {\n        address ethereum_candidate_address = candidateContract\n            .getCandidateAddressByPartyName(_party_name);\n\n        require(\n            ethereum_candidate_address != address(0),\n            \" No candidate found for this party\"\n        );\n\n        return voters[ethereum_candidate_address].length;\n    }\n\n    function verifyMyVote(string calldata _party_name)\n        public\n        view\n        returns (string memory nicop, uint256 voter_index)\n    {\n        address ethereum_candidate_address = candidateContract\n            .getCandidateAddressByPartyName(_party_name);\n\n        require(\n            ethereum_candidate_address != address(0),\n            \" There is no such party exist\"\n        );\n\n        for (\n            uint256 loop = 0;\n            loop < voters[ethereum_candidate_address].length;\n            loop++\n        ) {\n            if (\n                voters[ethereum_candidate_address][loop].ethereum_address ==\n                msg.sender\n            ) {\n                return (voters[ethereum_candidate_address][loop].nicop, loop);\n            }\n        }\n    }\n}\n",
  "sourcePath": "/mnt/g/javascript/Projects/BlockChain/Voting_Dapp/contracts/Voter.sol",
  "compiler": {
    "name": "solc",
    "version": "0.8.2+commit.661d1103.Emscripten.clang"
  },
  "schemaVersion": "3.4.2",
  "updatedAt": "2021-08-14T02:07:44.124Z",
  "devdoc": {
    "kind": "dev",
    "methods": {},
    "version": 1
  },
  "userdoc": {
    "kind": "user",
    "methods": {},
    "version": 1
  }
}